:020000040800F2
:10000000FFFF0220A10B0008F10B0008F10B000814
:10001000F10B0008F10B0008F10B000800000000D4
:10002000000000000000000000000000F10B0008CC
:10003000F10B000800000000F10B0008F10B0008B4
:10004000F10B0008F10B0008F10B0008F10B0008A0
:10005000F10B0008F10B0008F10B0008F10B000890
:10006000F10B0008F10B0008F10B0008F10B000880
:10007000F10B0008F10B0008F10B0008F10B000870
:10008000F10B0008F10B0008F10B0008F10B000860
:10009000F10B0008F10B0008F10B0008F10B000850
:1000A000F10B0008F10B0008F10B0008F10B000840
:1000B000F10B0008F10B0008F10B0008F10B000830
:1000C000F10B0008F10B0008F10B0008F10B000820
:1000D000F10B0008F10B0008F10B0008F10B000810
:1000E000F10B0008F10B0008F10B0008F10B000800
:1000F000F10B0008F10B0008F10B0008F10B0008F0
:10010000F10B0008F10B0008F10B0008F10B0008DF
:10011000F10B0008F10B0008F10B0008F10B0008CF
:10012000F10B0008F10B0008F10B0008F10B0008BF
:10013000F10B0008F10B0008F10B0008F10B0008AF
:10014000F10B0008F10B0008F10B0008F10B00089F
:10015000F10B0008F10B0008F10B0008F10B00088F
:10016000F10B0008F10B0008F10B0008F10B00087F
:10017000F10B0008F10B0008F10B00080000000073
:10018000F10B0008F10B0008F10B0008F10B00085F
:10019000F10B0008F10B0008F10B0008F10B00084F
:0C01A000F10B0008F10B0008F10B000847
:1001AC0010B5054C237833B9044B13B10448AFF3A5
:1001BC0000800123237010BD4004002000000000CB
:1001CC00F40B0008084B10B51BB108480849AFF3F5
:1001DC0000800848036803B910BD074B002BFBD007
:1001EC00BDE81040184700BF00000000F40B0008E9
:1001FC0044040020400400200000000080B483B0C0
:10020C0000AF064B7B607B6800225A617B68402202
:10021C005A630C37BD465DF8047B704700380240CA
:10022C0080B400AF0949094B5A6840F211131340CE
:10023C004B60064B5B68012B01D1012300E00023CE
:10024C001846BD465DF8047B704700BF0008065099
:10025C0080B400AF034B04221A60BD465DF8047BEA
:10026C00704700BF0008065080B582B000AFFFF7A2
:10027C00C5FFFFF7EDFF502000F0FCF9FFF7D0FFB2
:10028C000346002B02D0024B9B687B60F6E700BF55
:10029C000008065080B485B000AF78607B6803F02E
:1002AC000703FB600C4BDB68BB60BA684FF6FF03BF
:1002BC001340BB60FB681A02BB68134343F0BF6377
:1002CC0043F40033BB60044ABB68D3601437BD46AB
:1002DC005DF8047B704700BF00ED00E080B400AF18
:1002EC00044BDB6803F4E0631B0A1846BD465DF85B
:1002FC00047B704700ED00E080B483B000AF034690
:10030C00FB71084997F907305B09FA7902F01F0273
:10031C00012000FA02F241F823200C37BD465DF8AB
:10032C00047B704700E100E080B483B000AF03466B
:10033C00FB71094997F907305B09FA7902F01F0242
:10034C00012000FA02F2203341F823200C37BD467D
:10035C005DF8047B704700BF00E100E080B483B01F
:10036C0000AF0346FB710C4A97F907305B09403329
:10037C0052F82330FA7902F01F02012101FA02F23D
:10038C001340002B01D0012300E0002318460C374A
:10039C00BD465DF8047B704700E100E080B483B09B
:1003AC0000AF0346FB71094997F907305B09FA79ED
:1003BC0002F01F02012000FA02F2403341F8232020
:1003CC000C37BD465DF8047B704700BF00E100E0D0
:1003DC0080B483B000AF0346FB71094997F907302D
:1003EC005B09FA7902F01F02012000FA02F2603375
:1003FC0041F823200C37BD465DF8047B704700BFE5
:10040C0000E100E080B483B000AF0346FB710C4AFE
:10041C0097F907305B09803352F82330FA7902F0F0
:10042C001F02012101FA02F21340002B01D001231B
:10043C0000E0002318460C37BD465DF8047B70477E
:10044C0000E100E080B483B000AF03463960FB717B
:10045C0097F90730002B0BDA0D49FB7903F00F03EA
:10046C00043B3A68D2B21201D2B20B441A7609E0BC
:10047C00084997F907303A68D2B21201D2B20B444C
:10048C0083F800230C37BD465DF8047B704700BF32
:10049C0000ED00E000E100E080B483B000AF034663
:1004AC00FB7197F90730002B0ADA0D4AFB7903F040
:1004BC000F03043B13441B7EDBB21B09DBB208E0C9
:1004CC00084A97F90730134493F80033DBB21B0941
:1004DC00DBB218460C37BD465DF8047B704700BF95
:1004EC0000ED00E000E100E080B489B000AFF860FE
:1004FC00B9607A60FB6803F00703FB61FB69C3F129
:10050C000703042B28BF0423BB61FB690433062BB0
:10051C0002D9FB69033B00E000237B61BB6901222C
:10052C0002FA03F3013B1A46BB681A407B699A40F6
:10053C007B69012101FA03F3013B19467B680B40EF
:10054C00134318462437BD465DF8047B704700BF43
:10055C0080B489B000AFF860B9607A603B60BB686A
:10056C0003F00703FB61FB69C3F10703042B28BFEE
:10057C000423BB61FB690433062B02D9FB69033BE3
:10058C0000E000237B617B69FA6822FA03F3BA6905
:10059C00012101FA02F2013A1A407B681A607B6968
:1005AC00012202FA03F3013B1A46FB681A403B682E
:1005BC001A602437BD465DF8047B704780B400AFE9
:1005CC00BFF34F8F0549054BDB6803F4E062044B26
:1005DC001343CB60BFF34F8FFEE700BF00ED00E08D
:1005EC000400FA0580B582B000AF78607B68013BEF
:1005FC00B3F1807F01D301230FE00A4A7B68013BF2
:10060C0053604FF0FF300F21FFF71CFF054B00220A
:10061C009A60044B07221A60002318460837BD461F
:10062C0080BD00BF10E000E080B582B000AF786004
:10063C007868FFF72FFE0837BD4680BD80B586B0C1
:10064C0000AF0346B9607A60FB7300237B61FFF750
:10065C0045FE78617869B9687A68FFF745FF02460C
:10066C0097F90F3018461146FFF7ECFE1837BD46C8
:10067C0080BD00BF80B582B000AF0346FB7197F917
:10068C0007301846FFF738FE0837BD4680BD00BF5F
:10069C0080B582B000AF0346FB7197F9073018465E
:1006AC00FFF742FE0837BD4680BD00BF80B500AFE6
:1006BC00FFF784FF80BD00BF80B582B000AF7860CB
:1006CC007868FFF78FFF034618460837BD4680BD94
:1006DC0080B500AFFFF702FE0346184680BD00BF91
:1006EC0080B584B000AFB9607A603B600346FB73A1
:1006FC0097F90F301846FFF7CFFE03461846B96836
:10070C007A683B68FFF724FF1037BD4680BD00BFF9
:10071C0080B582B000AF0346FB7197F907301846DD
:10072C00FFF73CFE0837BD4680BD00BF80B582B0E8
:10073C0000AF0346FB7197F907301846FFF70EFE22
:10074C00034618460837BD4680BD00BF80B582B051
:10075C0000AF0346FB7197F907301846FFF738FED8
:10076C000837BD4680BD00BF80B582B000AF0346E0
:10077C00FB7197F907301846FFF744FE03461846FD
:10078C000837BD4680BD00BF80B483B000AF786031
:10079C007B68042B06D1094A084B1B6843F0040301
:1007AC00136005E0054A054B1B6823F00403136036
:1007BC000C37BD465DF8047B704700BF10E000E0CD
:1007CC0080B500AF00F002F880BD00BF80B400AF70
:1007DC00BD465DF8047B704780B500AF114A114BE4
:1007EC001B6843F0010313600E4B00229A600D4A04
:1007FC000C4B1B6823F0847323F480331360094B78
:10080C00094A5A60074A074B1B6823F4802313607C
:10081C00044B0022DA6000F087F8044B4FF00062C2
:10082C009A6080BD003802401030002400ED00E0DA
:10083C0080B487B000AF00233B6100237B610223AF
:10084C00FB600023BB6002237B60324B9B6803F090
:10085C000C033B613B69042B07D0082B09D0002B00
:10086C003FD12D4B2D4A1A603FE02B4B2C4A1A607E
:10087C003BE0284B5B6803F480039B0DBB60254B6E
:10088C005B6803F03F037B60BB68002B0DD0244AF0
:10089C007B68B2FBF3F21F4B596847F6C0730B40F1
:1008AC009B0903FB02F37B610CE01C4A7B68B2FBE7
:1008BC00F3F2184B596847F6C0730B409B0903FBC6
:1008CC0002F37B61134B5B6803F440331B0C013365
:1008DC005B00FB607A69FB68B2FBF3F30E4A1360B2
:1008EC0003E00D4B0D4A1A6000BF0A4B9B6803F0E6
:1008FC00F0031B090B4AD35CDBB23B61064B1A6855
:10090C003B6922FA03F3044A13601C37BD465DF8B9
:10091C00047B704700380240000000200024F400E3
:10092C0000127A000400002080B483B000AF0023D2
:10093C007B6000233B60434A424B1B6843F480338B
:10094C001360404B1B6803F400333B607B6801333E
:10095C007B603B68002B04D17B6841F28832934268
:10096C00EFD1384B1B6803F40033002B02D001236A
:10097C003B6001E000233B603B68012B5CD1314ABA
:10098C00304B1B6C43F0805313642F4A2E4B1B6867
:10099C0043F4404313602B4A2A4B9B689360294ACB
:1009AC00284B9B6843F400439360264A254B9B6875
:1009BC0043F4A0539360234B244A5A60214A214BA1
:1009CC001B6843F08073136000BF1E4B1B6803F061
:1009DC000073002BF9D01C4A1B4B1B6843F480336B
:1009EC00136000BF184B5B6803F48033002BF9D005
:1009FC00154A154B1B6843F40033136000BF124BB0
:100A0C005B6803F40033002BF9D0114B40F20572F4
:100A1C001A600C4A0B4B9B6823F003039360094A42
:100A2C00084B9B6843F00203936000BF054B9B6827
:100A3C0003F00C03082BF9D10C37BD465DF8047B91
:100A4C00704700BF0038024000700040085A400751
:100A5C00003C024070B50F4E0F4D761BB61018BF00
:100A6C00002405D0013455F8043B9847A642F9D12F
:100A7C000A4E0B4D761B00F0B7F8B61018BF0024C9
:100A8C0006D0013455F8043B9847A642F9D170BD05
:100A9C0070BD00BF140C0008140C00081C0C0008DE
:100AAC00140C0008024B13B1024800F005B8704753
:100ABC0000000000D10A000801460020024603464F
:100ACC0000F016B838B5084B084DED1AAC1018BF2D
:100ADC00ED1805D0013C55F8043D9847002CF9D190
:100AEC00BDE8384000F086B81C0C0008200C00084B
:100AFC002DE9F047254C2568D5F84841064688462F
:100B0C0092469946CCB360681F2818DC431C7EB112
:100B1C0004EB80050121C5F888A0D4F8887101FA8E
:100B2C0000F21743022EC4F88871C5F808911ED044
:100B3C000230636044F820800020BDE8F087144B3D
:100B4C0003B34FF4C870AFF300800446D0B1D5F8AE
:100B5C004831002780E88800C5F848413846012311
:100B6C00C4F88871C4F88C71002EE1D0D0E7D4F8A9
:100B7C008C110A43C4F88C21DAE705F5A674C5F884
:100B8C004841C0E74FF0FF30BDE8F087100C00087B
:100B9C0000000000DFF834D0002103E00C4B5B5860
:100BAC00435004310B480C4B42189A42F6D30B4A73
:100BBC0002E0002342F8043B094B9A42F9D3FFF7B9
:100BCC000BFEFFF747FFFFF74FFB7047FFFF0220BD
:100BDC00200C0008000000204004002040040020ED
:100BEC005C040020FEE70000F8B500BFF8BC08BCB0
:100BFC009E467047F8B500BFF8BC08BC9E467047CF
:080C0C00430000001800002065
:080C1400B10A0008D10100083B
:040C1C00AD0100081E
:100C20000095BA0A00000000000000000102030461
:100C3000060708090000000000000000040300206F
:100C40006C030020D403002000000000000000001E
:100C50000000000000000000000000000000000094
:100C60000000000000000000000000000C0C000864
:100C70000000000000000000000000000000000074
:100C80000000000000000000000000000000000064
:100C90000000000000000000000000000000000054
:100CA0000000000000000000000000000000000044
:100CB0000000000000000000000000000000000034
:100CC0000000000000000000000000000000000024
:100CD0000000000000000000000000000000000014
:100CE00001000000000000000E33CDAB34126DE6B1
:100CF000ECDE05000B00000000000000000000001A
:100D000000000000000000000000000000000000E3
:100D100000000000000000000000000000000000D3
:100D200000000000000000000000000000000000C3
:100D300000000000000000000000000000000000B3
:0400000508000BA143
:00000001FF
